:0400000002001132B7
:03000B0002071ACF
:10006A00752600752700752802752900752A0075FE
:10007A002B00752C00752D00752E00E4F52FF53038
:10008A00F531F532F533F534F535F536F537F5381A
:10009A00753902D200C201C202C203C204C205C239
:1000AA0006C207C208C209C20AD20BD20CD20DD2AA
:1000BA000EC20FC210C211C212C213C214C215C29A
:1000CA0016C217C218C219C21AC21BC21CC21DC24A
:0E00DA001EC21FC220C221C222C22302000E7B
:03000E00020A479C
:1000E800AF8253070FE53A60067D017E0080047DEC
:1000F800007E00ED4F4408FFC0071207B775824E17
:100108001207F7D00774044FF582C0071207F712D9
:1001180007AED00774FB5FF5821207F70207D9AF65
:100128008274F05FF582853B3AC0071200E8D00779
:10013800EFC454F0FF74F05FF582853B3A0200E8A3
:10014800753B00020127753B01020127AD82AE8392
:10015800AFF08D828E838FF0120FBCFC60188C82FA
:100168000DBD00010EC007C006C00512014ED00526
:10017800D006D00780DC22AF82BF0207C2B2C2B36A
:10018800000022BF0307C2B2D2B3000022BF040698
:10019800D2B2C2B3000022E4FFFEFDFCFB7402B53C
:1001A800390280030202E2758202C007C006C00558
:1001B800C004C00312017FD003D004D005D006D0FC
:1001C800073010337403B5320C3008027C01301943
:1001D800047C01C2197404B5320C3009027C013068
:1001E8001A047C01C21A7401B5320C3006027C0173
:1001F8003017047C01C2177402B533093011067F29
:10020800017E03801A7402B534093012067F017E1C
:1002180004800C7402B53107300F047F017E01742D
:1002280001B536161013028011753600753500C2F7
:10023800067D01753100C20FC2077403B53616106A
:1002480015028011753700753600C2087D017533B7
:1002580000C211C2077404B5361610160280117553
:100268003800753600C2097D01753400C212C20714
:100278003011167402B53311301D0EC211753702D4
:10028800753603D208D22280303012167402B53483
:1002980011301D0EC212753802753604D209D223E8
:1002A8008017300F147402B5310F301D0CC20F7552
:1002B8003502753601D206D220102102801C740145
:1002C800FBB53206D206C20380107403B53204D2DD
:1002D8000880077404B53202D2097403B539028064
:1002E8000302041F758203C007C006C005C004C00E
:1002F8000312017FD003D004D005D006D0073011F7
:10030800337402B5330C3007027C013018047C01C9
:10031800C2187404B5330C3009027C01301A047C0D
:1003280001C21A7401B5330C3006027C013017047F
:100338007C01C2177403B532093010067F017E03B1
:10034800801A7403B534093012067F017E04800CCC
:100358007403B53107300F047F017E017401B5378E
:10036800161013028011753700753500C2067D011D
:10037800753100C20FC2087402B537161014028016
:1003880011753700753600C2077D01753200C2103D
:10039800C2087404B5371610160280117538007536
:1003A8003700C2097D01753400C212C20830101628
:1003B8007403B53211301E0EC2107536037537023C
:1003C800D207D22180303012167403B53411301E92
:1003D8000EC212753803753704D209D2238017303C
:1003E8000F147403B5310F301E0CC20F7535037529
:1003F8003701D206D220102202801C7401FBB533CB
:1004080006D206C20380107402B53304D2078007EF
:100418007404B53302D2097404B5390280030205A5
:100428005C758204C007C006C005C004C003120181
:100438007FD003D004D005D006D007301233740320
:10044800B5340C3008027C013019047C01C21974DF
:1004580002B5340C3007027C013018047C01C21844
:100468007401B5340C3006027C013017047C01C2DB
:10047800177404B533093011067F017E03801A749E
:1004880004B532093010067F017E02800C7404B571
:100498003107300F047F017E017401B5381610133F
:1004A800028011753800753500C2067D017531006E
:1004B800C20FC2097403B5381610150280117537BA
:1004C80000753800C2087D01753300C211C2097475
:1004D80002B538161014028011753800753600C23E
:1004E800077D01753200C210C2093011167404B5B7
:1004F8003311301F0EC211753704753803D208D274
:100508002280303010167404B53211301F0EC2101C
:10051800753604753802D207D2218017300F14744B
:1005280004B5310F301F0CC20F753504753801D270
:1005380006D220102302801C7401FBB53406D206B3
:10054800C20380107402B53404D20780077403B55F
:100558003402D208A206E433F50A8E088D098C0B02
:100568008B0C8F821206938527821206DF75820F05
:100578001206E8E58260051205B480157402B539E3
:1005880002C20C7403B53902C20D7404B53902C233
:100598000E7402B53904753903227403B53904752C
:1005A8003904227404B53903753902227402B53945
:1005B80045E529540124FF920CE52903540124FF41
:1005C8009210E5290303543FFF74035F04F532E5F5
:1005D80029C4540124FF9214E529A2E5E43324FF39
:1005E8009207E5292323540124FF9218E52923546F
:1005F80001FF24FF921D7403B53945E529540124F0
:10060800FF920DE52903540124FF9211E529030304
:10061800543FFF74035F04F533E529C4540124FFF4
:100628009215E529A2E5E43324FF9208E52923235E
:10063800540124FF9219E529235401FF24FF921E37
:100648007404B53945E529540124FF920EE52903C0
:10065800540124FF9212E5290303543FFF74035FFA
:1006680004F534E529C4540124FF9216E529A2E5CE
:10067800E43324FF9209E5292323540124FF921A25
:10068800E529235401FF24FF921F22AF827E00E553
:10069800086007AD081D74035DFEA200E433FD5336
:1006A8000501530701EF2F4205EE2E25E04205E52F
:1006B800095401C454F04205E50A5401C42354E026
:1006C8004205E50B5401030354C04205E50C5401EF
:1006D8000354804DF5272285829910990280FB22C8
:1006E800AF82AE2620980CE526C39EC39F40F575C1
:1006F800820022C2988599297582012253890F4365
:100708008920758DFD758BFDD28E759850C299C262
:100718009822C0E0C007C006C0D075D000758CFC18
:10072800758A66E52604F526AE2FAF3074012EF5DE
:100738002FE43FF530C3E52F94E8E53094034007F4
:10074800E4F52FF530052ED0D0D006D007D0E03212
:100758005389F0438901758CFC758A66D2A9C2ABAE
:10076800D2AFD28CD2A6D2B0D2B1C2A1C2A0C2900E
:10077800C291C292D293D296D2B4D295D294C2B236
:10078800C2B322C290C291D29222C290D291C29296
:1007980022C290D291D29222D290C291C29222C207
:1007A80090C291C292227F148F061FEE70FA22D255
:1007B800A2D2A31207AEC2A21207AEC2A30207AE0C
:1007C800D2A5D2A41207AEC2A51207AEC2A40207D0
:1007D800AEC2A21207AED2A31207AED2A20207AED1
:1007E800C2A51207AED2A41207AED2A50207AEAFB9
:1007F800827E008F045304807D00EC4D24FF92A27A
:10080800D2A3C007C0061207AEC2A31207AED00615
:10081800D0078F05ED2DFF0EBE080040D6D2A2D21C
:10082800A31207AEC2A30207AEAF827E008F0453A5
:1008380004807D00EC4D24FF92A5D2A4C007C00619
:100848001207AEC2A41207AED006D0078F05ED2D51
:10085800FF0EBE080040D6D2A5D2A41207AEC2A48D
:100868000207AEAF82C0071207C87582201208318E
:10087800D0078F82120831853C821208310207E8BE
:10088800AF82BF0108AF3D747F2FFF8006AE3D7475
:10089800BF2EFF8F82020148AF82C0071207C875BA
:1008A8008220120831D0078F82120831853E8212C9
:1008B8000831853F821208318540821208310207CB
:1008C800E8E582FF701DF53EF53FF540F582120818
:1008D800A0753D06758202120888900FDC75F080BD
:1008E800020154BF0121753E0F753F1C75401075FC
:1008F80082C01208A0753D06758202120888900F02
:10090800E675F080020154BF0221753E0F753F2243
:100918007540107582C01208A0753D0675820212D6
:100928000888900FF075F08002015422753D037518
:100938008201120888900FFA75F080120154753DF3
:100948000175820212088890100575F08012015412
:1009580075820E120148753D01758202020888757C
:100968003D01758202120888D2A17402B528099047
:10097800101475F0800201547403B52809901019F9
:1009880075F0800201547404B5280990101E75F0A2
:100998008002015422753D01758202120888740292
:1009A800B5280990102375F0800201547403B52806
:1009B8000990102875F0800201547404B528099034
:1009C800102D75F080020154221207A7753D01759C
:1009D800820212088890103275F080120154852620
:1009E8002BD202C203C204753100C20F22D203D235
:1009F80005D2A0852E2D1207A77402B52812753DC1
:100A08000175820212088890103775F0800201542F
:100A18007403B52812753D0175820212088890107A
:100A28003C75F0800201547404B52812753D0175B7
:100A3800820212088890104175F080020154227FCA
:100A4800007E00D224D225D226D227D228C007C0C1
:100A580006120758120704120934D006D007E526F3
:100A6800C39FFDBD14005003020F9FAF26A2009242
:100A78000BA2959229A293922AA294922BA29692C3
:100A88002CA2B4922D20A606D2A7D200800730A6A9
:100A980004C2A7C200300504E5268005200502C26D
:100AA80097300226AD26BD4B00401FC202753D019E
:100AB800758202C007C00612088890104675F0803B
:100AC800120154D006D0077528007402B535077492
:100AD80001B5360280167403B535077401B53702BF
:100AE800800A7404B535097401B53804D206C2A069
:100AF800E5317003020BBB7402B5313D301D207522
:100B08003502753601D206753100C2A0D2A1C007E0
:100B1800C00612078B120967D006D007020BBB204C
:100B28001803020BBB753100C218C2A0C007C0066B
:100B38001209D1D006D007807A7403B53139301E36
:100B48001F753503753701D206753100C2A0D2A1D1
:100B5800C007C006120792120967D006D007805353
:100B6800301950753100C219C2A0C007C006120959
:100B7800D1D006D007803C7404B53137301F1F75BB
:100B88003504753801D206753100C2A0D2A1C0075C
:100B9800C006120799120967D006D0078015301AC7
:100BA80012753100C21AC2A0C007C0061209D1D0FE
:100BB80006D007E535605B7402B5351A101402805B
:100BC80051753500753600C206C007C0061209D136
:100BD800D006D007803C7403B5351A101502803250
:100BE800753500753700C206C007C0061209D1D096
:100BF80006D007801D7404B53518101602801375C9
:100C08003500753800C206C007C0061209D1D006E3
:100C1800D0077401B53219301016200613200310BE
:100C2800752802C007C0061209F5D006D007803A19
:100C38007401B533193011162006132003107528D6
:100C480003C007C0061209F5D006D007801C74013E
:100C5800B5341730121420061120030E752804C06D
:100C680007C0061209F5D006D0077401B532032073
:100C780010107401B533032011087401B5346130C4
:100C8800125E301C5B7402B52C1A753502C21C75D5
:100C98003601D221C007C00612096712078BD00699
:100CA800D007803C7403B52C1A753503C21C753700
:100CB80001D222C007C006120967120792D006D0D7
:100CC80007801D7404B52C18753504C21C753801CD
:100CD800D223C007C006120967120799D006D007A9
:100CE8001020028044C20F853135D2A17402B5317B
:100CF80010C007C00612078B120967D006D00780FC
:100D0800287403B53110C007C0061207921209678C
:100D1800D006D00780137404B5310EC007C0061280
:100D28000799120967D006D007300F24300604E56A
:100D380035701DE52EC3952DFDBD2D004012C20F47
:100D4800753100C2A0C007C0061209D1D006D0076D
:100D5800300323300604E535701CE52EC3952DFDC0
:100D6800BD2D004011C203C205C2A0C007C00612B3
:100D780009D1D006D007302903020E7620240302B9
:100D88000E76300603020E76300303020E76300428
:100D980003020E76300103020E33E5287020752811
:100DA80002753D04758202C007C0061208889010BB
:100DB8004B75F080120154D006D007020E767402EB
:100DC800B52820752803753D04758202C007C00642
:100DD80012088890104D75F080120154D006D00783
:100DE800020E767403B5281F752804753D047582B4
:100DF80002C007C00612088890104F75F0801201D3
:100E080054D006D00780677404B528627528027527
:100E18003D04758202C007C00612088890104B7501
:100E2800F080120154D006D007804330014074018D
:100E3800B52A1C752A02753D0C758202C007C006CA
:100E48001208887582021208C9D006D007801F745C
:100E580002B52A1A752A01753D0C758202C007C0B1
:100E6800061208887582011208C9D006D007A2297F
:100E78009224202A7530257230034F85283585281D
:100E88002CD2A1D21CC205C2A0C007C00612096795
:100E9800D006D0077402B52C0DC007C00612078B08
:100EA800D006D00780447403B52C0DC007C00612C5
:100EB8000792D006D00780327404B52C2DC007C025
:100EC80006120799D006D007802020061D20031A95
:100ED800200417D20F852831D2A0D204852E2DC028
:100EE80007C00612099DD006D007A22A9225202BFA
:100EF8005030264D200604E5356022D213C206750F
:100F08003500753100C20FC2A1C203C21CC007C0A0
:100F1800061207A71209D1D006D007802430032172
:100F2800C205D217C206753500753100C20FC2A1BD
:100F3800C2A0C203C21CC007C0061209D1D006D085
:100F480007A22B9226202C3C302739200636100A7F
:100F5800028018758200C007C0061208C91207A7C8
:100F6800D006D007752A00C2018019200A16D20AB5
:100F7800758201C007C0061208C91207A0D006D0A2
:100F880007752A01A22C9227202D08302805300A3F
:100F980002B201A22D9228E526C39EFDBD32005063
:100FA80003020A66AE26C007C00612019FD006D00B
:040FB80007020A66BC
:100FDC00526164696F3A4F464600526164696F3AD8
:100FEC0051555200526164696F3A464D20003D5292
:100FFC006574726F436F6D3D0053743A30205261CB
:10100C0064696F3A4F46460043414C320043414CB1
:10101C00330043414C340043322E2E0043332E2EEA
:10102C000043342E2E0048414E4700494E323F00BB
:10103C00494E333F00494E343F0053743A3000322E
:05104C00003300340038
:06004000E478FFF6D8FD94
:10001E007900E94400601B7A00901051780175A0B8
:10002E0000E493F2A308B8000205A0D9F4DAF27541
:02003E00A0FF21
:100046007800E84400600A790175A000E4F309D855
:10005600FC7800E84400600C7900900001E4F0A30D
:04006600D8FCD9FAEF
:0D001100758140120FD8E582600302000ED9
:100FBC0020F71430F6148883A88220F507E6A8835E
:100FCC0075830022E280F7E49322E02275820022EE
:00000001FF
