:04000000020029329F
:03000B000202FEF0
:0100130032BA
:01001B0032B2
:03002300020502D1
:10008200750800750900750A02750B00750C00757C
:100092000D00750E00750F00E4F510F511F512F55F
:1000A20013F514F515F516F517F518F519F51AD215
:1000B20000C201C202C203C204C205C206C207C212
:1000C20008C209C20AC20BC20CC20DC20EC20FD2B2
:0A00D20010C211C212C21302002670
:0300260002050DC3
:1000DC00C2A2120383D2A3120383D2A2020383AF60
:1000EC008253070FE51B60067D017E0080047D00B6
:1000FC007E00ED4F4408FFC00712038C75824E1230
:10010C00039DD00774044FF582C00712039D1203A0
:10011C0083D00774FB5FF58212039D0200DCAF8273
:10012C0074F05FF582851C1BC0071200EBD007EF43
:10013C00C454F0FF74F05FF582851C1B0200EB7554
:10014C001C0002012A751C0102012AAD82AE83AF8C
:10015C00F08D828E838FF01206FCFC60188C820D61
:10016C00BD00010EC007C006C005120151D005D05C
:10017C0006D00780DC2230080885120AC208120457
:10018C00B0E518700330130B30090812048CC2133D
:10019C0075180020040330123530060A12048CC284
:1001AC0004C212C213223007251204227401B50DA9
:1001BC000512036780127403B50D0512036E8008D7
:1001CC007404B50D03120375D213C204C20322E5E5
:1001DC000B540124FF920DE50B03540124FF9208EC
:1001EC00E50B0303543FFF74035F04F512E50BC4E6
:1001FC00540124FF9209E50BA2E5E43324FF920E8F
:10020C00E50B2323540124FF9206E50B2354012410
:10021C00FF9207120229C20AC20BC20C227F007E77
:10022C00007D007C007B007A0030121A7401FFB54F
:10023C0014047E0180107403B514047E03800774CB
:10024C0004B514027E04300A027D013013027C01D5
:10025C00300B027B01300C027A018E248D258C260A
:10026C008B278A288F82020275AF827E00E524607C
:10027C0007AD241D74035DFEA200E433FD5305019C
:10028C00530701EF2F4205EE2E25E04205E52554DC
:10029C0001C454F04205E5265401C42354E0420540
:1002AC00E5275401030354C04205E52854010354C7
:1002BC00804DF5092285829910990280FB22AF822C
:1002CC00AE0820980CE508C39EC39F40F5758200CC
:1002DC0022C29885990B7582012253890F4389207C
:1002EC00758DFD758BFDD28E759850C299C298D2C2
:1002FC00AC22C0E0C007C006C0D075D000758CFC25
:10030C00758A66E50804F508AE10AF1174012EF578
:10031C0010E43FF511C3E51094E8E5119403400790
:10032C00E4F510F511050FD0D0D006D007D0E0328F
:10033C005389F0438901758CFC758A66D2A9C2ABCE
:10034C00D2AFD28CD2A6D2B0D2B1C2A1C2A0C2902E
:10035C00C291C292D293D295D29422C290C291D21F
:10036C009222C290D291C29222C290D291D2922267
:10037C00C290C291C292227F148F061FEE70FA2295
:10038C00D2A2D2A3120383C2A2120383C2A302037A
:10039C0083AF827E008F045304807D00EC4D24FFDC
:1003AC0092A2D2A3C007C006120383C2A312038376
:1003BC00D006D0078F05ED2DFF0EBE080040D6D21B
:1003CC00A2D2A3120383C2A3020383AF82BF01088C
:1003DC00AF1D747F2FFF8006AE1D74BF2EFF8F8262
:1003EC0002014B751D037582011203D790071C7512
:1003FC00F080120157751D017582021203D7900708
:10040C002775F08012015775820E12014B751D0174
:10041C007582020203D7751D017582021203D7D2B1
:10042C00A17401B50A0990073675F0800201577462
:10043C0003B50A0990073B75F0800201577404B5A7
:10044C000A0990074075F08002015722751D01754D
:10045C0082021203D77401B50A0990074575F08022
:10046C000201577403B50A0990074A75F08002011E
:10047C00577404B50A0990074F75F0800201572292
:10048C0012037C751D017582021203D790075475F7
:10049C00F08012015785080CD202C203C2047514F5
:1004AC0000C21222D203D205D2A0850F0E12037CF9
:1004BC007401B50A12751D017582021203D79007DB
:1004CC005975F0800201577403B50A12751D017538
:1004DC0082021203D790075E75F0800201577404F4
:1004EC00B50A12751D017582021203D79007637548
:1004FC00F08002015722109802800585990BD20FCB
:10050C00327F00D214D215D216C00712033C12024D
:10051C00E61203EFD007100F02800DC0071201DBAB
:10052C008509821202C1D007E508C39FFEBE1400E4
:10053C0040E4AF08A2009210A2959217A2939218D1
:10054C00A294921920A606D2A7D200800730A60446
:10055C00C2A7C200C007120182D007300504E5080B
:10056C008005200502C297300226E508C3950CFED3
:10057C00BE4B00401BC202751D01758202C00712E2
:10058C0003D790076875F080120157D007750A00E1
:10059C0030170302063D20140302063D30130302FC
:1005AC00063D30030302063D30040302063D3001D4
:1005BC000302063DE50A701B750A01751D04758260
:1005CC0002C0071203D790076D75F080120157D047
:1005DC0007805E7401B50A1B750A03751D047582CC
:1005EC0002C0071203D790076F75F080120157D025
:1005FC0007803E7403B50A1B750A04751D047582C9
:10060C0002C0071203D790077175F080120157D002
:10061C0007801E7404B50A19750A01751D047582CC
:10062C0002C0071203D790076D75F080120157D0E6
:10063C0007A217921420186430156130033F850A05
:10064C0018850A0DD2A1D20CC205C2A0C007120493
:10065C0022D0077401B50D09C007120367D00780BB
:10066C003B7403B50D09C00712036ED007802D74BF
:10067C0004B50D28C007120375D007801F20131C6A
:10068C00200319200416D212850A14850A0DD2A053
:10069C00D204850F0EC007120458D007A218921569
:1006AC00201946301643201304E518601ED20AC2E6
:1006BC0013751800751400C212C2A1C203C0071230
:1006CC00037C12048CD007C209801E30031BC205A8
:1006DC00D20BC213751800751400C212C2A1C2A0AD
:1006EC00C203C00712048CD007A21992160205226D
:10071C003D526574726F436F6D3D0053743A3020D7
:10072C0043757272656E743A320043414C3100432A
:10073C00414C330043414C340043312E2E004333A3
:10074C002E2E0043342E2E0048414E4700494E3188
:10075C003F00494E333F00494E343F0053743A300A
:07076C0000310033003400EE
:06005800E478FFF6D8FD7C
:100036007900E94400601B7A00900773780175A087
:1000460000E493F2A308B8000205A0D9F4DAF27529
:02005600A0FF09
:10005E007800E84400600A790175A000E4F309D83D
:10006E00FC7800E84400600C7900900001E4F0A3F5
:04007E00D8FCD9FAD7
:0D002900758128120718E582600302002689
:1006FC0020F71430F6148883A88220F507E6A88327
:10070C0075830022E280F7E49322E02275820022B6
:00000001FF
