:0400000002001132B7
:03000B0002071ACF
:10006A00752600752700752802752900752A0075FE
:10007A002B00752C00752D00752E00E4F52FF53038
:10008A00F531F532F533F534F535F536F537F5381A
:10009A00753902D200C201C202C203C204C205C239
:1000AA0006C207C208C209C20AD20BD20CD20DD2AA
:1000BA000EC20FC210C211C212C213C214C215C29A
:1000CA0016C217C218C219C21AC21BC21CC21DC24A
:0E00DA001EC21FC220C221C222C22302000E7B
:03000E00020A479C
:1000E800AF8253070FE53A60067D017E0080047DEC
:1000F800007E00ED4F4408FFC0071207B775824E17
:100108001207F7D00774044FF582C0071207F712D9
:1001180007AED00774FB5FF5821207F70207D9AF65
:100128008274F05FF582853B3AC0071200E8D00779
:10013800EFC454F0FF74F05FF582853B3A0200E8A3
:10014800753B00020127753B01020127AD82AE8392
:10015800AFF08D828E838FF0121069FC60188C824C
:100168000DBD00010EC007C006C00512014ED00526
:10017800D006D00780DC22AF82BF0207C2B2C2B36A
:10018800000022BF0307C2B2D2B3000022BF040698
:10019800D2B2C2B3000022E4FFFEFDFCFB7402B53C
:1001A800390280030202E2758202C007C006C00558
:1001B800C004C00312017FD003D004D005D006D0FC
:1001C800073010337403B5320C3008027C01301943
:1001D800047C01C2197404B5320C3009027C013068
:1001E8001A047C01C21A7401B5320C3006027C0173
:1001F8003017047C01C2177402B533093011067F29
:10020800017E03801A7402B534093012067F017E1C
:1002180004800C7402B53107300F047F017E01742D
:1002280001B536161013028011753600753500C2F7
:10023800067D01753100C20FC2077403B53616106A
:1002480015028011753700753600C2087D017533B7
:1002580000C211C2077404B5361610160280117553
:100268003800753600C2097D01753400C212C20714
:100278003011167402B53311301D0EC211753702D4
:10028800753603D208D22280303012167402B53483
:1002980011301D0EC212753802753604D209D223E8
:1002A8008017300F147402B5310F301D0CC20F7552
:1002B8003502753601D206D220102102801C740145
:1002C800FBB53206D206C20380107403B53204D2DD
:1002D8000880077404B53202D2097403B539028064
:1002E8000302041F758203C007C006C005C004C00E
:1002F8000312017FD003D004D005D006D0073011F7
:10030800337402B5330C3007027C013018047C01C9
:10031800C2187404B5330C3009027C01301A047C0D
:1003280001C21A7401B5330C3006027C013017047F
:100338007C01C2177403B532093010067F017E03B1
:10034800801A7403B534093012067F017E04800CCC
:100358007403B53107300F047F017E017401B5378E
:10036800161013028011753700753500C2067D011D
:10037800753100C20FC2087402B537161014028016
:1003880011753700753600C2077D01753200C2103D
:10039800C2087404B5371610160280117538007536
:1003A8003700C2097D01753400C212C20830101628
:1003B8007403B53211301E0EC2107536037537023C
:1003C800D207D22180303012167403B53411301E92
:1003D8000EC212753803753704D209D2238017303C
:1003E8000F147403B5310F301E0CC20F7535037529
:1003F8003701D206D220102202801C7401FBB533CB
:1004080006D206C20380107402B53304D2078007EF
:100418007404B53302D2097404B5390280030205A5
:100428005C758204C007C006C005C004C003120181
:100438007FD003D004D005D006D007301233740320
:10044800B5340C3008027C013019047C01C21974DF
:1004580002B5340C3007027C013018047C01C21844
:100468007401B5340C3006027C013017047C01C2DB
:10047800177404B533093011067F017E03801A749E
:1004880004B532093010067F017E02800C7404B571
:100498003107300F047F017E017401B5381610133F
:1004A800028011753800753500C2067D017531006E
:1004B800C20FC2097403B5381610150280117537BA
:1004C80000753800C2087D01753300C211C2097475
:1004D80002B538161014028011753800753600C23E
:1004E800077D01753200C210C2093011167404B5B7
:1004F8003311301F0EC211753704753803D208D274
:100508002280303010167404B53211301F0EC2101C
:10051800753604753802D207D2218017300F14744B
:1005280004B5310F301F0CC20F753504753801D270
:1005380006D220102302801C7401FBB53406D206B3
:10054800C20380107402B53404D20780077403B55F
:100558003402D208A206E433F50A8E088D098C0B02
:100568008B0C8F821206938527821206DF75820F05
:100578001206E8E58260051205B480157402B539E3
:1005880002C20C7403B53902C20D7404B53902C233
:100598000E7402B53904753903227403B53904752C
:1005A8003904227404B53903753902227402B53945
:1005B80045E529540124FF920CE52903540124FF41
:1005C8009210E5290303543FFF74035F04F532E5F5
:1005D80029C4540124FF9214E529A2E5E43324FF39
:1005E8009207E5292323540124FF9218E52923546F
:1005F80001FF24FF921D7403B53945E529540124F0
:10060800FF920DE52903540124FF9211E529030304
:10061800543FFF74035F04F533E529C4540124FFF4
:100628009215E529A2E5E43324FF9208E52923235E
:10063800540124FF9219E529235401FF24FF921E37
:100648007404B53945E529540124FF920EE52903C0
:10065800540124FF9212E5290303543FFF74035FFA
:1006680004F534E529C4540124FF9216E529A2E5CE
:10067800E43324FF9209E5292323540124FF921A25
:10068800E529235401FF24FF921F22AF827E00E553
:10069800086007AD081D74035DFEA200E433FD5336
:1006A8000501530701EF2F4205EE2E25E04205E52F
:1006B800095401C454F04205E50A5401C42354E026
:1006C8004205E50B5401030354C04205E50C5401EF
:1006D8000354804DF5272285829910990280FB22C8
:1006E800AF82AE2620980CE526C39EC39F40F575C1
:1006F800820022C2988599297582012253890F4365
:100708008920758DFD758BFDD28E759850C299C262
:100718009822C0E0C007C006C0D075D000758CFC18
:10072800758A66E52604F526AE2FAF3074012EF5DE
:100738002FE43FF530C3E52F94E8E53094034007F4
:10074800E4F52FF530052ED0D0D006D007D0E03212
:100758005389F0438901758CFC758A66D2A9C2ABAE
:10076800D2AFD28CD2A6D2B0D2B1C2A1C2A0C2900E
:10077800C291C292D293D296D2B4D295D294C2B236
:10078800C2B322C290C291D29222C290D291C29296
:1007980022C290D291D29222D290C291C29222C207
:1007A80090C291C292227F148F061FEE70FA22D255
:1007B800A2D2A31207AEC2A21207AEC2A30207AE0C
:1007C800D2A5D2A41207AEC2A51207AEC2A40207D0
:1007D800AEC2A21207AED2A31207AED2A20207AED1
:1007E800C2A51207AED2A41207AED2A50207AEAFB9
:1007F800827E008F045304807D00EC4D24FF92A27A
:10080800D2A3C007C0061207AEC2A31207AED00615
:10081800D0078F05ED2DFF0EBE080040D6D2A2D21C
:10082800A31207AEC2A30207AEAF827E008F0453A5
:1008380004807D00EC4D24FF92A5D2A4C007C00619
:100848001207AEC2A41207AED006D0078F05ED2D51
:10085800FF0EBE080040D6D2A5D2A41207AEC2A48D
:100868000207AEAF82C0071207C87582201208318E
:10087800D0078F82120831853C821208310207E8BE
:10088800AF82BF0108AF3D747F2FFF8006AE3D7475
:10089800BF2EFF8F82020148AF82C0071207C875BA
:1008A8008220120831D0078F82120831853E8212C9
:1008B8000831853F821208318540821208310207CB
:1008C800E8E582FF701DF53EF53FF540F582120818
:1008D800A0753D0675820212088890108975F0800F
:1008E800020154BF0121753E0F753F1C75401075FC
:1008F80082C01208A0753D06758202120888901001
:100908009375F080020154BF0221753E0F753F2296
:100918007540107582C01208A0753D0675820212D6
:10092800088890109D75F08002015422753D03756A
:1009380082011208889010A775F080120154753D45
:10094800017582021208889010B275F08012015465
:1009580075820E120148753D01758202020888757C
:100968003D01758202120888D2A17402B528099047
:1009780010C175F0800201547403B528099010C69F
:1009880075F0800201547404B528099010CB75F0F5
:100998008002015422753D01758202120888740292
:1009A800B528099010D075F0800201547403B52859
:1009B800099010D575F0800201547404B528099087
:1009C80010DA75F080020154221207A7753D0175EF
:1009D80082021208889010DF75F080120154852673
:1009E8002BD202C203C204753100C20F22D203D235
:1009F80005D2A0852E2D1207A77402B52812753DC1
:100A0800017582021208889010E475F08002015482
:100A18007403B52812753D0175820212088890107A
:100A2800E975F0800201547404B52812753D01750A
:100A380082021208889010EE75F080020154227F1D
:100A4800007E007D00D224D225D226D227D228C00B
:100A580007C006C005120758120704120934D0054A
:100A6800D006D007E526C39FFCBC14005003021033
:100A780048AF26A200920BA2959229A293922AA28D
:100A880094922BA296922CA2B4922D20A606D2A7BD
:100A9800D200800730A604C2A7C200300510E52E98
:100AA800C39DFCBC0100400BAD2EB297800520050C
:100AB80002C29730022AAC26BC4B004023C2027502
:100AC8003D01758202C007C006C005120888901053
:100AD800F375F080120154D005D006D007752800B0
:100AE8007402B535077401B5360280167403B5353E
:100AF800077401B53702800A7404B535097401B565
:100B08003804D206C2A0E5317003020BEA7402B5BC
:100B18003146301D24753502753601D2067531000F
:100B2800C2A0D2A1C007C006C00512078B12096770
:100B3800D005D006D007020BEA201803020BEA758D
:100B48003100C218C2A0C007C006C0051209D1D022
:100B580005D006D007020BEA7403B53141301E23D5
:100B6800753503753701D206753100C2A0D2A1C010
:100B780007C006C005120792120967D005D006D033
:100B880007805F30195C753100C219C2A0C007C068
:100B980006C0051209D1D005D006D00780447404D8
:100BA800B5313F301F23753504753801D2067531CC
:100BB80000C2A0D2A1C007C006C005120799120939
:100BC80067D005D006D0078019301A16753100C2D3
:100BD8001AC2A0C007C006C0051209D1D005D006A8
:100BE800D007E53560677402B5351E101402805DC4
:100BF800753500753600C206C007C006C005120963
:100C0800D1D005D006D00780447403B5351E101521
:100C180002803A753500753700C206C007C006C0A5
:100C2800051209D1D005D006D00780217404B53546
:100C38001C1016028017753500753800C206C007EB
:100C4800C006C0051209D1D005D006D0077401B579
:100C5800321D30101A200617200314752802C00709
:100C6800C006C0051209F5D005D006D00780427429
:100C780001B5331D30111A200617200314752803F7
:100C8800C007C006C0051209F5D005D006D00780F8
:100C9800207401B5341B3012182006152003127574
:100CA8002804C007C006C0051209F5D005D006D033
:100CB800077401B532032010107401B533032011F5
:100CC800087401B5346D30126A301C677402B52C93
:100CD8001E753502C21C753601D221C007C006C078
:100CE8000512096712078BD005D006D00780447417
:100CF80003B52C1E753503C21C753701D222C007F7
:100D0800C006C005120967120792D005D006D007A1
:100D180080217404B52C1C753504C21C753801D2A9
:100D280023C007C006C005120967120799D005D06D
:100D380006D0071020028050C20F853135D2A17429
:100D480002B53114C007C006C00512078B12096727
:100D5800D005D006D00780307403B53114C007C061
:100D680006C005120792120967D005D006D0078081
:100D7800177404B53112C007C006C00512079912CE
:100D88000967D005D006D007300F28300604E535AE
:100D98007021E52EC3952DFCBC2D004016C20F75A1
:100DA8003100C2A0C007C006C0051209D1D005D0C5
:100DB80006D007300327300604E5357020E52EC33A
:100DC800952DFCBC2D004015C203C205C2A0C0076A
:100DD800C006C0051209D1D005D006D007302903B6
:100DE800020EF5202403020EF5300603020EF5303C
:100DF8000303020EF5300403020EF5300103020E60
:100E0800AAE5287024752802753D04758202C0077A
:100E1800C006C0051208889010F875F080120154B9
:100E2800D005D006D007020EF57402B5282475281F
:100E380003753D04758202C007C006C00512088804
:100E48009010FA75F080120154D005D006D0070230
:100E58000EF57403B52823752804753D04758202C0
:100E6800C007C006C0051208889010FC75F08012F3
:100E78000154D005D006D00780737404B5286E7568
:100E88002802753D04758202C007C006C005120815
:100E9800889010F875F080120154D005D006D0075C
:100EA800804B3001487401B52A20752A02753D0C23
:100EB800758202C007C006C0051208887582021232
:100EC80008C9D005D006D00780237402B52A1E753C
:100ED8002A01753D0C758202C007C006C0051208BC
:100EE800887582011208C9D005D006D007A22992B8
:100EF80024302A03020F8B202503020F8B30035F57
:100F080085283585282CD2A1D21CC205C2A0C007CD
:100F1800C006C005120967D005D006D0077402B50F
:100F28002C11C007C006C00512078BD005D006D00B
:100F38000780507403B52C11C007C006C0051207FE
:100F480092D005D006D007803A7404B52C35C00776
:100F5800C006C005120799D005D006D00780242006
:100F6800062120031E20041BD20F852831D2A0D2CF
:100F780004852E2DC007C006C00512099DD005D0D6
:100F880006D007A22A9225202B5830265520060481
:100F9800E5356026D213C206753500753100C20FDB
:100FA800C2A1C203C21CC007C006C0051207A7120F
:100FB80009D1D005D006D0078028300325C205D234
:100FC80017C206753500753100C20FC2A1C2A0C292
:100FD80003C21CC007C006C0051209D1D005D0063F
:100FE800D007A22B9226202C4430274120063E1001
:100FF8000A02801C758200C007C006C0051208C915
:101008001207A7D005D006D007752A00C201801D97
:10101800200A1AD20A758201C007C006C005120844
:10102800C91207A0D005D006D007752A01A22C92B4
:1010380027202D08302805300A02B201A22D922857
:10104800E526C39EFCBC32005003020A6CAE26C0E3
:1010580007C006C00512019FD005D006D007020AB6
:011068006C1B
:10108900526164696F3A4F464600526164696F3A2A
:1010990051555200526164696F3A464D20003D52E4
:1010A9006574726F436F6D3D0053743A302052611D
:1010B90064696F3A4F46460043414C320043414C04
:1010C900330043414C340043322E2E0043332E2E3D
:1010D9000043342E2E0048414E4700494E323F000E
:1010E900494E333F00494E343F0053743A30003281
:0510F90000330034008B
:06004000E478FFF6D8FD94
:10001E007900E94400601B7A009010FE780175A00B
:10002E0000E493F2A308B8000205A0D9F4DAF27541
:02003E00A0FF21
:100046007800E84400600A790175A000E4F309D855
:10005600FC7800E84400600C7900900001E4F0A30D
:04006600D8FCD9FAEF
:0D001100758140121085E582600302000E2B
:1010690020F71430F6148883A88220F507E6A883B0
:1010790075830022E280F7E49322E0227582002240
:00000001FF
