:0400000002001132B7
:03000B0002071CCD
:10006A00752600752700752802752900752A0075FE
:10007A002B00752C00752D00752E00E4F52FF53038
:10008A00F531F532F533F534F535F536F537F5381A
:10009A00F539753A02D200C201C202C203C204C2D1
:1000AA0005C206C207C208C209C20AD20BD20CD2C2
:1000BA000DD20EC20FC210C211C212C213C214C292
:1000CA0015C216C217C218C219C21AC21BC21CC252
:1000DA001DC21EC21FC220C221C222C22302000E9A
:03000E00020A598A
:1000EA00AF8253070FE53B60067D017E0080047DE9
:1000FA00007E00ED4F4408FFC0071207C075824E0C
:10010A00120802D00774044FF582C00712080212BF
:10011A0007B7D00774FB5FF5821208020207E2AF45
:10012A008274F05FF582853C3BC0071200EAD00773
:10013A00EFC454F0FF74F05FF582853C3B0200EA9D
:10014A00753C00020129753C01020129AD82AE838A
:10015A00AFF08D828E838FF0120FDCFC60188C82D8
:10016A000DBD00010EC007C006C005120150D00522
:10017A00D006D00780DC22AF82BF0207C2B2C2B368
:10018A00000022BF0307C2B2D2B3000022BF040696
:10019A00D2B2C2B3000022E4FFFEFDFCFB7402B53A
:1001AA003A0280030202E4758202C007C006C00553
:1001BA00C004C003120181D003D004D005D006D0F8
:1001CA00073010337403B5330C3008027C01301940
:1001DA00047C01C2197404B5330C3009027C013065
:1001EA001A047C01C21A7401B5330C3006027C0170
:1001FA003017047C01C2177402B534093011067F26
:10020A00017E03801A7402B535093012067F017E19
:10021A0004800C7402B53207300F047F017E01742A
:10022A0001B537161013028011753700753600C2F2
:10023A00067D01753200C20FC2077403B537161066
:10024A0015028011753800753700C2087D017534B2
:10025A0000C211C2077404B5371610160280117550
:10026A003900753700C2097D01753500C212C2070F
:10027A003011167402B53411301D0EC211753802D0
:10028A00753703D208D22280303012167402B5357F
:10029A0011301D0EC212753902753704D209D223E4
:1002AA008017300F147402B5320F301D0CC20F754F
:1002BA003602753701D206D220102102801C740141
:1002CA00FBB53306D206C20380107403B53304D2D9
:1002DA000880077404B53302D2097403B53A028060
:1002EA0003020421758203C007C006C005C004C00A
:1002FA0003120181D003D004D005D006D0073011F3
:10030A00337402B5340C3007027C013018047C01C6
:10031A00C2187404B5340C3009027C01301A047C0A
:10032A0001C21A7401B5340C3006027C013017047C
:10033A007C01C2177403B533093010067F017E03AE
:10034A00801A7403B535093012067F017E04800CC9
:10035A007403B53207300F047F017E017401B5388A
:10036A00161013028011753800753600C2067D0119
:10037A00753200C20FC2087402B538161014028012
:10038A0011753800753700C2077D01753300C21038
:10039A00C2087404B5381610160280117539007532
:1003AA003800C2097D01753500C212C20830101624
:1003BA007403B53311301E0EC21075370375380237
:1003CA00D207D22180303012167403B53511301E8F
:1003DA000EC212753903753804D209D22380173038
:1003EA000F147403B5320F301E0CC20F7536037525
:1003FA003801D206D220102202801C7401FBB534C7
:10040A0006D206C20380107402B53404D2078007EC
:10041A007404B53402D2097404B53A0280030205A1
:10042A005E758204C007C006C005C004C00312017D
:10043A0081D003D004D005D006D00730123374031C
:10044A00B5350C3008027C013019047C01C21974DC
:10045A0002B5350C3007027C013018047C01C21841
:10046A007401B5350C3006027C013017047C01C2D8
:10047A00177404B534093011067F017E03801A749B
:10048A0004B533093010067F017E02800C7404B56E
:10049A003207300F047F017E017401B5391610133B
:1004AA00028011753900753600C2067D0175320069
:1004BA00C20FC2097403B5391610150280117538B6
:1004CA0000753900C2087D01753400C211C2097471
:1004DA0002B539161014028011753900753700C239
:1004EA00077D01753300C210C2093011167404B5B4
:1004FA003411301F0EC211753804753903D208D26F
:10050A002280303010167404B53311301F0EC21019
:10051A00753704753902D207D2218017300F147447
:10052A0004B5320F301F0CC20F753604753901D26B
:10053A0006D220102302801C7401FBB53506D206B0
:10054A00C20380107402B53504D20780077403B55C
:10055A003502D208A206E433F50A8E088D098C0BFF
:10056A008B0C8F821206958527821206E175820FFF
:10057A001206EAE58260051205B680157402B53ADC
:10058A0002C20C7403B53A02C20D7404B53A02C22F
:10059A000E7402B53A04753A03227403B53A047527
:1005AA003A04227404B53A03753A02227402B53A3F
:1005BA0045E529540124FF920CE52903540124FF3F
:1005CA009210E5290303543FFF74035F04F533E5F2
:1005DA0029C4540124FF9214E529A2E5E43324FF37
:1005EA009207E5292323540124FF9218E52923546D
:1005FA0001FF24FF921D7403B53A45E529540124ED
:10060A00FF920DE52903540124FF9211E529030302
:10061A00543FFF74035F04F534E529C4540124FFF1
:10062A009215E529A2E5E43324FF9208E52923235C
:10063A00540124FF9219E529235401FF24FF921E35
:10064A007404B53A45E529540124FF920EE52903BD
:10065A00540124FF9212E5290303543FFF74035FF8
:10066A0004F535E529C4540124FF9216E529A2E5CB
:10067A00E43324FF9209E5292323540124FF921A23
:10068A00E529235401FF24FF921F22AF827E00E551
:10069A00086007AD081D74035DFEA200E433FD5334
:1006AA000501530701EF2F4205EE2E25E04205E52D
:1006BA00095401C454F04205E50A5401C42354E024
:1006CA004205E50B5401030354C04205E50C5401ED
:1006DA000354804DF5272285829910990280FB22C6
:1006EA00AF82AE2620980CE526C39EC39F40F575BF
:1006FA00820022C2988599297582012253890F4363
:10070A008920758DFD758BFDD28E759850C299C260
:10071A009822C0E0C007C006C0D075D000758CFC16
:10072A00758A66E52604F526AE2FAF3074012EF5DC
:10073A002FE43FF530C3E52F94E8E5309403400AEF
:10074A00E4F52FF530E52E04F52ED0D0D006D007EB
:10075A00D0E0325389F0438901758CFC758A66D2E0
:10076A00A9C2ABD2AFD28CD2A6D2B0D2B1D2A1D2C8
:10077A00A0D297D2A7C290C291C292D293D296D255
:10078A00B4D295D294C2B2C2B322C290C291D292CA
:10079A0022C290D291C29222C290D291D29222D2F5
:1007AA0090C291C29222C290C291C292227F148FA9
:1007BA00061FEE70FA22D2A2D2A31207B7C2A21261
:1007CA0007B7C2A30207B7D2A5D2A41207B7C2A518
:1007DA001207B7C2A40207B7C2A3C2A21207B7D2AE
:1007EA00A31207B7D2A20207B7C2A51207B7D2A4AB
:1007FA001207B7D2A50207B7AF827E008F0453044F
:10080A00807D00EC4D24FF92A2D2A3C007C006123D
:10081A0007B7C2A31207B7D006D0078F05ED2DFF81
:10082A000EBE080040D6D2A2D2A31207B7C2A302B4
:10083A0007B7AF827E008F045304807D00EC4D24FD
:10084A00FF92A5D2A4C007C0061207B7C2A4120716
:10085A00B7D006D0078F05ED2DFF0EBE080040D693
:10086A00D2A5D2A41207B7C2A40207B7AF82C007A3
:10087A001207D175822012083CD0078F8212083CD9
:10088A00853D8212083C0207F3AF82BF0108AF3EE2
:10089A00747F2FFF8006AE3E74BF2EFF8F82020147
:1008AA004AAF82C0071207D175822012083CD007CE
:1008BA008F8212083C853F8212083C8540821208CA
:1008CA003C85418212083C0207F3E582FF701DF560
:1008DA003FF540F541F5821208AB753E0675820276
:1008EA00120893900FFC75F080020156BF01217522
:1008FA003F0F75401C7541107582C01208AB753EDA
:10090A000675820212089390100675F0800201564D
:10091A00BF0221753F0F7540227541107582C012C2
:10092A0008AB753E0675820212089390101075F096
:10093A008002015622753E037582011208939010B7
:10094A001A75F080120156753E01758202120893DB
:10095A0090102575F08012015675820E12014A75A3
:10096A003E01758202020893753E017582021208E1
:10097A0093C2A17402B5280990103475F08002015F
:10098A00567403B5280990103975F080020156741F
:10099A0004B5280990103E75F08002015622753E72
:1009AA00017582021208937402B5280990104375E2
:1009BA00F0800201567403B5280990104875F0803A
:1009CA000201567404B5280990104D75F080020191
:1009DA0056221207B0753E017582021208939010D2
:1009EA005275F08012015685262BD202C203C20428
:1009FA00753200C20F22D203D205D2A0852E2DE570
:100A0A002E14F531D2971207B07402B52812753E2A
:100A1A000175820212089390105775F080020156F0
:100A2A007403B52812753E0175820212089390105C
:100A3A005C75F0800201567404B52812753E017582
:100A4A00820212089390106175F080020156227F8B
:100A5A00007E00D224D225D226D227D228C007C0AF
:100A6A000612075D12070612093FD006D007E526CF
:100A7A00C39FFDBD14005003020FBFAF26A2009210
:100A8A000BA2959229A293922AA294922BA29692B1
:100A9A002CA2B4922D20A606C2A7D200800730A6A7
:100AAA0004D2A7C200300512E52EC39531FDBD015F
:100ABA0000400C852E31B2978005200502D297306E
:100ACA000226AD26BD4B00401FC202753E0175824B
:100ADA0002C007C00612089390106675F0801201D2
:100AEA0056D006D0077528007402B536077401B5CA
:100AFA00370280167403B536077401B53802800AC6
:100B0A007404B536097401B53904D206D2A0E532A7
:100B1A007003020BDB7402B5323D301D20753602BC
:100B2A00753701D206753200D2A0C2A1C007C0062D
:100B3A00120794120972D006D007020BDB201803A1
:100B4A00020BDB753200C218D2A0C007C006120918
:100B5A00DCD006D007807A7403B53239301E1F758F
:100B6A003603753801D206753200D2A0C2A1C00779
:100B7A00C00612079B120972D006D007805330199B
:100B8A0050753200C219D2A0C007C0061209DCD0C3
:100B9A0006D007803C7404B53237301F1F753604FF
:100BAA00753901D206753200D2A0C2A1C007C006AB
:100BBA001207A2120972D006D0078015301A1275D0
:100BCA003200C21AD2A0C007C0061209DCD006D071
:100BDA0007E536605B7402B5361A10140280517547
:100BEA003600753700C206C007C0061209DCD006F7
:100BFA00D007803C7403B5361A1015028032753658
:100C0A0000753800C206C007C0061209DCD006D03B
:100C1A0007801D7404B53618101602801375360045
:100C2A00753900C206C007C0061209DCD006D00713
:100C3A007401B533193010162006132003107528D5
:100C4A0002C007C006120A00D006D007803A740113
:100C5A00B53419301116200613200310752803C065
:100C6A0007C006120A00D006D007801C7401B535E9
:100C7A001730121420061120030E752804C007C06D
:100C8A0006120A00D006D0077401B53303201010EB
:100C9A007401B534032011087401B5356130125E50
:100CAA00301C5B7402B52C1A753602C21C753701EA
:100CBA00D221C007C006120972120794D006D007C3
:100CCA00803C7403B52C1A753603C21C753801D2E0
:100CDA0022C007C00612097212079BD006D00780ED
:100CEA001D7404B52C18753604C21C753901D2233B
:100CFA00C007C0061209721207A2D006D007102038
:100D0A00028044C20F853236C2A17402B53210C0C5
:100D1A0007C006120794120972D006D007802874F9
:100D2A0003B53210C007C00612079B120972D0061B
:100D3A00D00780137404B5320EC007C0061207A28A
:100D4A00120972D006D007300F24300604E5367037
:100D5A001DE52EC3952DFDBD2D004012C20F753223
:100D6A0000D2A0C007C0061209DCD006D0073003A3
:100D7A0023300604E536701CE52EC3952DFDBD2DE6
:100D8A00004011C203C205D2A0C007C0061209DC86
:100D9A00D006D007302903020E96202403020E96AD
:100DAA00300603020E96300303020E963004030245
:100DBA000E96300103020E53E5287020752802753D
:100DCA003E04758202C007C00612089390106B7524
:100DDA00F080120156D006D007020E967402B5288A
:100DEA0020752803753E04758202C007C0061208E2
:100DFA009390106D75F080120156D006D007020E3E
:100E0A00967403B5281F752804753E04758202C0BE
:100E1A0007C00612089390106F75F080120156D021
:100E2A0006D00780677404B52862752802753E04E7
:100E3A00758202C007C00612089390106B75F08085
:100E4A00120156D006D00780433001407401B52AFA
:100E5A001C752A02753E0C758202C007C00612086C
:100E6A00937582021208D4D006D007801F7402B587
:100E7A002A1A752A01753E0C758202C007C006122D
:100E8A0008937582011208D4D006D007A2299224A9
:100E9A00202A7530257230034F85283685282CC2C2
:100EAA00A1D21CC205D2A0C007C006120972D00680
:100EBA00D0077402B52C0DC007C006120794D006DD
:100ECA00D00780447403B52C0DC007C00612079BD7
:100EDA00D006D00780327404B52C2DC007C0061284
:100EEA0007A2D006D007802020061D20031A20045E
:100EFA0017D20F852832C2A0D204852E2DC007C072
:100F0A00061209A8D006D007A22A9225202B503013
:100F1A00264D200604E5366022D213C20675360035
:100F2A00753200C20FD2A1C203C21CC007C006128A
:100F3A0007B01209DCD006D0078024300321C2058D
:100F4A00D217C206753600753200C20FD2A1D2A0DE
:100F5A00C203C21CC007C0061209DCD006D007A211
:100F6A002B9226202C3C302739200636100A028084
:100F7A0018758200C007C0061208D41207B0D0063E
:100F8A00D007752A00C2018019200A16D20A758272
:100F9A0001C007C0061208D41207A9D006D00775E7
:100FAA002A01A22C9227202D08302805300A02B2E5
:100FBA0001A22D9228E526C39EFDBD3200500302F0
:100FCA000A78AE26C007C0061201A1D006D00702D1
:020FDA000A7893
:100FFC00526164696F3A4F464600526164696F3AB8
:10100C0051555200526164696F3A464D20003D5271
:10101C006574726F436F6D3D0053743A30205261AA
:10102C0064696F3A4F46460043414C320043414C91
:10103C00330043414C340043322E2E0043332E2ECA
:10104C000043342E2E0048414E4700494E323F009B
:10105C00494E333F00494E343F0053743A3000320E
:05106C00003300340018
:06004000E478FFF6D8FD94
:10001E007900E94400601B7A00901071780175A098
:10002E0000E493F2A308B8000205A0D9F4DAF27541
:02003E00A0FF21
:100046007800E84400600A790175A000E4F309D855
:10005600FC7800E84400600C7900900001E4F0A30D
:04006600D8FCD9FAEF
:0D001100758141120FF8E582600302000EB8
:100FDC0020F71430F6148883A88220F507E6A8833E
:100FEC0075830022E280F7E49322E02275820022CE
:00000001FF
